:100000000C945E000C9486000C9486000C94860080
:100010000C9486000C9486000C9486000C94860048
:100020000C9486000C9486000C9486000C94A80D09
:100030000C9486000C9486000C9486000C94860028
:100040000C94C8140C9486000C94ED100C94301190
:100050000C9486000C9486000C9486000C94860008
:100060000C9486000C94860000000007000201003A
:100070000003040600000000000000000102040864
:100080001020408001020408102001020408102002
:10009000040404040404040402020202020203032E
:1000A0000303030300000000250028002B000000CC
:1000B0000000240027002A00A00CEC1111241FBE10
:1000C000CFEFD8E0DEBFCDBF13E0A0E0B1E0ECE4BD
:1000D000FFE202C005900D92A839B107D9F717E0E9
:1000E000A8E9B3E001C01D92A138B107E1F710E023
:1000F000CCEBD0E004C02297FE010E948817C83BD9
:10010000D107C9F70E9448100C94A4170C94000062
:10011000FC01DB0182818C93838111968C93119772
:10012000848112968C931297858113968C931397E2
:10013000868114968C931497878115968C931597C6
:10014000808516968C931697818517968C9388E0F8
:1001500090E00895FC01DB014C9150E060E070E01C
:10016000428353836483758311968C911197582B26
:10017000428353836483758312968C911297682B04
:10018000428353836483758313968C911397782BE2
:10019000428353836483758314964C91149750E083
:1001A00060E070E0468357836087718715968C9175
:1001B0001597582B468357836087718716968C91C5
:1001C0001697682B468357836087718717968C91A3
:1001D000782B468357836087718788E090E0089585
:1001E0008CE091E008958AE191E00895A0E0B0E00C
:1001F000ECEFF0E00C943417FC01DB018C9190E003
:100200009383828311962C911197922B93838283EF
:1002100012964D915D916D917C9115975D0186E0EF
:10022000A80EB11C8A019B010A5F1F4F2F4F3F4F41
:100230006501CA1ADB0AE12CF12CC016D106E206D0
:10024000F30640F4E501F9905E01CE010297EC015E
:10025000F882EECFED01C40FD51F1D82CD010596AA
:1002600095838483ED01C40FD51FCE80DF80E884A1
:10027000F984465F5F4F3D01640E751E8A01222797
:1002800017FD2095322F0C0D1D1D2E1D3F1D430106
:100290008A1A9B0AA12CB12C80169106A206B306DD
:1002A00040F4E30169913E01CE010297EC016883BD
:1002B000EECFC40ED51E9D012C0D3D1DC901019729
:1002C000EC011882415051094A0F5B1F5783468346
:1002D000E901088119812A813B81D4E0CD0ED11C2E
:1002E0003D016C0C7D1CA601662757FD6095762F9D
:1002F000400F511F621F731F43018A1A9B0AA12CD2
:10030000B12C84169506A606B70640F4E301F990D1
:100310003E01CE010297EC01F882EECF0C0D1D1DBF
:100320009D01200F311FC9010197EC011882D1E016
:10033000CD1AD108CA0EDB1ED186C086D90111960E
:100340008C91119712964C91129750E060E070E0FA
:10035000BA0155274427582B8C91482B13968C9122
:10036000782B4287538764877587C8010496CDB779
:10037000DEB7EEE00C9450178BE391E0089584E52E
:1003800091E00895AF92BF92CF92DF92EF92FF92E9
:100390001F93CF93DF939C01FB018081D9011296BB
:1003A0008C9381819281A381B4815B01C5E0AC0E05
:1003B000B11CAC01BD014B5F5F4F6F4F7F4F6501BB
:1003C000CE1ADF0AE12CF12CC416D506E606F70694
:1003D00050F4E501D9905E017E01D2E0ED1AF108FA
:1003E000E701D882ECCFEF01C80FD91F1C823496E9
:1003F000E901FC83EB830596DF91CF911F91FF907C
:10040000EF90DF90CF90BF90AF90089585E791E097
:10041000089588E891E0089582E093E0089589EADC
:1004200091E00895AF92BF92CF92DF92EF92FF9248
:100430001F93CF93DF93FC019B01EB01899199916D
:10044000A991B9915E01AC01BD014C5F5F4F6F4F47
:100450007F4F6501C21AD30AE12CF12CC416D506D0
:10046000E606F70650F4E501D9905E017E01D2E080
:10047000ED1AF108E701D882ECCFE901C80FD91FC6
:100480001B822D5F3F4F338322834C8150E060E01D
:1004900070E044835583668377832D81522B448398
:1004A0005583668377832E81622B448355836683CD
:1004B00077832F81722B44835583668377834885A6
:1004C00050E060E070E0408751876287738729853C
:1004D000522B40875187628773872A85622B40871A
:1004E0005187628773872B85722B4087518762877C
:1004F00073870C96DF91CF911F91FF90EF90DF9063
:10050000CF90BF90AF9008958AEC91E0089587EE68
:1005100091E00895A0E0B0E0E0E9F2E00C943B1730
:10052000EC018B018A81FB0180831182128213828C
:10053000D12C24E0E22EF12C8A81D801AE0DBF1D12
:10054000D816A0F48F859889FCE0DF9E800D911D60
:100550001124FC0120813181F90120813181BD010B
:10056000F9010995E80EF91ED394E6CF89898C9399
:100570008A8911968C9311978B8912968C93129776
:100580008C8913968C93C7010496CDB7DEB7E7E04C
:100590000C94571788E092E0089582E292E0089563
:1005A0000F931F93CF93DF93EC018B0102960E9470
:1005B0008A022F89F801E80FF91F20831182128225
:1005C0000496138220E03F892317A8F4EC8DFD8D5B
:1005D00034E0239FE00DF11D11246081518142819F
:1005E0003381F801E80FF91F60835183428333831D
:1005F00004962F5FE8CFDF91CF911F910F9108955F
:1006000083E492E008958CE592E00895FC0186A1D0
:1006100097A1089583E492E008958CE592E008950F
:100620008E549D4FFC0180810895A0E0B0E0EBE185
:10063000F3E00C943817EC017B018A81DB018C9389
:100640008B8111968C93EC81FD81DF010D90002050
:10065000E9F7CD0101976C01CE1ADF0AC601A0E0CF
:10066000B0E0FB0182839383A483B5836C817D8199
:10067000A601C70106960E949B17EE81FF81DF014C
:100680000D900020E9F7CD0101975C01AE1ABF0A79
:10069000F701EC0DFD1D850120E030E00683178396
:1006A000208731879AE0C90ED11C6E817F81A50118
:1006B000C7018C0D9D1D0E949B17CA0CDB1CE88591
:1006C000F985DF010D900020E9F7CD0101975C016C
:1006D000AE1ABF0AF701EC0DFD1D850120E030E0E8
:1006E000008311832283338394E0C90ED11C688573
:1006F0007985A501C7018C0D9D1D0E949B17AC0C2F
:10070000BD1C3A852B859C858D85F701EA0DFB1D67
:100710003083218392838383C5010496CDB7DEB7EE
:10072000EAE00C9454170F931F93CF93DF93DC01EF
:10073000FB0112968C911297808313968D919C9158
:100740001497EC0109900020E9F72197C81BD90BF9
:100750008E0120E030E001831283238334831396DB
:100760006D917C911497AE01CF0105960E949B1765
:10077000CE010596DF91CF911F910F910895A0E0D2
:10078000B0E0E5ECF3E00C943917EC017B018A81D1
:10079000DB018C9311961C92119712961C92129762
:1007A00013961C92FB01379640E024E030E05A811A
:1007B000C90104964517F0F4AF81B88524E0429F43
:1007C000A00DB11D11246C9111965C911197129698
:1007D0003C91129713962C91DF0113976C93DF01D4
:1007E00012975C93DF0111973C9320839C014F5F2C
:1007F0003496DDCF4985F701E20FF31F4083118264
:100800001282138220E03985F701E80FF91F049660
:100810002317B0F4AE85BF8534E0239FA00DB11D32
:1008200011246C9111965C91119712964C9112972C
:1008300013963C9160835183428333832F5FE3CFD0
:1008400028892083118212821382B12C2889B21642
:1008500098F54B2D50E0440F551FEB89FC89E40FB0
:10086000F51F0190F081E02DDF010D900020E9F7E8
:100870009D01215031096901CE1ADF0AF701E80F05
:10088000F91F860120E030E0008311832283338347
:100890008C010C5F1F4FEB89FC89E40FF51F608111
:1008A0007181A601C701800F911F0E949B17C6018D
:1008B000800F911FB394CACFCDB7DEB7E9E00C9497
:1008C0005517A0E0B0E0E7E6F4E00C943A17EC012D
:1008D0006B01EA81FB81DF010D900020E9F7CD017A
:1008E00001977C01EE1AFF0A870120E030E0DB016E
:1008F0000D931D932D933D93CD016A817B81A701BB
:100900000E949B17F601EE0DFF1D8C8184838D8163
:1009100085838E8186838F8187838885808789857B
:1009200081878A8582878B858387C7010C96CDB79F
:10093000DEB7E8E00C9456174F925F927F928F9249
:100940009F92AF92BF92CF92DF92EF92FF920F935E
:100950001F93CF93DF93EC018B01DB01FC908A8125
:100960008F1550F4B4E0FB9EB00111248F8198855F
:100970000E94691398878F83FA82F8013796F12CC9
:1009800044E050E09E012D5F3F4F8A81BA016C5FC9
:100990007F4F6B01F81670F5408150E060E070E029
:1009A000742F662755274427DF0113978C91482B16
:1009B000DF0112978C91582BDF0111978C91682BD6
:1009C0004B835C836D837E83A6016F81788584E091
:1009D000F89E600D711D1124D9018D909D90AD90F0
:1009E000BC90DB018D929D92AD92BC921397F394D3
:1009F0003496CBCFF801E40FF51FF08089858F1571
:100A000050F484E0F89EB00111248E859F850E94E9
:100A100069139F878E879601F98680E0FE013A96DA
:100A20009985D801A20FB31FA9014C5F5F4F6A01DE
:100A3000891748F511969C91119712964C9112972F
:100A400050E060E070E0BA0155274427592B9C9193
:100A5000492B13969C91792B4A875B876C877D87FE
:100A60009601AE85BF8594E0899FA00DB11D11242C
:100A700040815181628173814D935D936D937C932D
:100A800013978F5FCDCFFC9088898F1550F46F2D11
:100A900070E0660F771F8B899C890E9469139C8B7D
:100AA0008B8BC601F88A712C2E0151E1450E511C29
:100AB0002889721608F044C0F801E80FF91FC080B9
:100AC000D180E280F3800496F801E80FF91FAC01B1
:100AD000662757FD6095762F4C0D5D1D6E1D7F1DA1
:100AE0009F01201B310B4901A12CB12C84169506C6
:100AF000A606B70638F4B1909F0122503109D901FA
:100B0000BC92EECFC80ED91EF801EC0DFD1D319739
:100B100010829C0121503109200F311F3A8B298B03
:100B2000C6013B892C89E32FF22FE70DF11DE70D5C
:100B3000F11DD2012D913C91318320837394B8CF64
:100B4000DF91CF911F910F91FF90EF90DF90CF90A9
:100B5000BF90AF909F908F907F905F904F9008953F
:100B6000A0E0B0E0E6EBF5E00C943817EC017B0177
:100B7000FB0110818A81811750F4FCE01F9FB001B6
:100B800011248F8598890E946913988B8F871A8307
:100B9000B12C04E010E06E0183E0C80ED11CBCE073
:100BA000AB2E8A81D701A00FB11FB816A8F4BD01E2
:100BB000C6010E941202080F191FAF85B889ECE028
:100BC000BE9EA00DB11D1124F6018A2D01900D923B
:100BD0008A95E1F7B394E5CF4C9150E060E070E086
:100BE000498B5A8B6B8B7C8B11968C911197582B60
:100BF000498B5A8B6B8B7C8B12968C911297682B3E
:100C0000498B5A8B6B8B7C8B13968C91782B498BF1
:100C10005A8B6B8B7C8BC8010496CDB7DEB7EAE0AC
:100C20000C945417A0E0B0E0E8E1F6E00C943B1718
:100C30008C01EB0102960E94B0057C01FE01E80FD9
:100C4000F91FD080D80157968C918D1570F4B4E0BF
:100C5000DB9EB0011124F801848D958D0E946913EB
:100C6000D8015D969C938E935C97C7010496F8011A
:100C7000D78A20E07801F8E1EF0EF11CD8015796F1
:100C80003C91231790F5DE01A80FB91F11963C91F6
:100C9000119712964C91129750E060E070E0BA0103
:100CA00055274427532B3C91432B13963C91732B90
:100CB000D80158964D935D936D937C935B97049602
:100CC0005C960D90BC91A02DE4E02E9FA00DB11D6F
:100CD0001124F70140815181628173814D935D93AD
:100CE0006D937C9313972F5FC9CFCDB7DEB7E7E045
:100CF0000C9457170F931F93CF93DF93EC018C0144
:100D00000A5F1F4FC8010E941206ECA1FDA1C80195
:100D10000995DF91CF911F910F910895A5E0B0E063
:100D2000E4E9F6E00C9438178C016B016436710528
:100D30003CF0FC01EE54FD4F8081882309F485C00E
:100D4000DA01ED91FC910190F081E02DB8016D5C2C
:100D50007E4FCA0109957C015801B4EDAB1ABEEF74
:100D6000BB0A2FEFF50120832EEFF801E35DFE4F64
:100D70002083F801E25DFE4F8083F801E15DFE4FC4
:100D80009083890F8095F801E05DFE4F8083F80124
:100D9000EF5CFE4FC082F801EE5CFE4FD08285E032
:100DA00090E020E030E0A701495F5F4F841795078E
:100DB00050F4F801E80FF91FE45DFE4F6081260F43
:100DC000311D0196F3CFF8E0EF0EF11C400F511FDB
:100DD000FA01E45DFE4F2095208329E1E21621E02F
:100DE000F206C8F46501C6018A199B098E159F0594
:100DF00084F4D80112968D919C911397F60161911C
:100E00006F01DC01ED91FC910190F081E02D0995DD
:100E1000EACFC7011CC08AE393E09A83898383E009
:100E20008B838DE792E09D838C83D801ED91FC91BB
:100E30000190F081E02DAE014F5F5F4F67E070E001
:100E4000C80109958FEF9FEF02C080E090E02596E2
:100E5000EAE00C94541740E051EE60E070E08AEC58
:100E600096E00E946B1166EB72E08AEC96E00E94BD
:100E7000361063E070E080EC93E00E94FA0E61E0CF
:100E800082E00E945C1461E082E00E9495140E945E
:100E9000710D81E00E948C0D80E00E94950D86E02E
:100EA0000E949A0D60ED77E080E090E00E9441158D
:100EB0000E94880D4091D3035091D4036091D503D3
:100EC0007091D6038091D1039091D2030E946B114F
:100ED000109278061092770610927A061092790690
:100EE00010927E0610927D0610927C0610927B0670
:100EF000E5E4F6E080E090E021913191232B81F44C
:100F0000FC01EE0FFF1FEB5BF94F28E933E0318363
:100F100020838C599F4F90939B0380939A0308954D
:100F200001968931910541F70895CF93C82F6B350C
:100F300038F064EC72E08AEC96E00E9436106AE5C4
:100F4000C13021F470E0665A7F4F0CC0CF3F31F4BE
:100F50008AE590E0861B9109BC0104C0C11107C05D
:100F60006AE570E080EC93E00E94340F07C06FEDFB
:100F700072E08AEC96E00E94361080E0CF910895EE
:100F80001092CE031092CD031092CC031092CB039B
:100F90001092CA031092C903DC015C96ED91FC919A
:100FA0005D9780A191A1A2A1B3A10197A105B1056F
:100FB00081F080819181A281B3810197A105B10562
:100FC00041F084819581A681B7810197A105B10582
:100FD00039F46AE570E080EC93E00E94340F0895E4
:100FE00084A995A9A6A9B7A90197A105B10519F4E6
:100FF0006EE181E00AC080AD91ADA2ADB3AD0197C5
:10100000A105B10529F46EE18FEF0E9495070895BF
:1010100080859185A285B3850197A105B10521F44D
:1010200081E08093CE03089584859585A685B78554
:101030000197A105B10521F481E08093CD030895C6
:1010400080899189A289B3890197A105B10521F40D
:1010500081E08093CB03089584899589A689B78917
:101060000197A105B10521F481E08093CC03089597
:10107000808D918DA28DB38D0197A105B10521F4CD
:1010800081E08093CA030895848D958DA68DB78DD8
:101090000197A105B10519F481E08093C903089572
:1010A000CF93C82F60E082E00E949514CEBD0DB4AE
:1010B00007FEFDCFCEB561E082E00E9495148C2F33
:1010C000CF910895CF93DF931092C8031092C70376
:1010D0000E94710D60E082E00E94951480E10E9400
:1010E000500880E00E945008C82F80E0C03151F0C5
:1010F0000E945008C82F62E070E080E090E00E94FB
:101100004115F3CF0E9450088093C30380E00E94F2
:1011100050088093C40361E082E00E9495140E940D
:10112000880DC091C303CF70C093C303D0E0DC2F00
:10113000CC278091C403C80FD11DD093C803C0939E
:10114000C703D093C603C093C50365E070E080E099
:1011500090E00E944115CE01DF91CF910895CF9389
:10116000DF93EC010E94620860E070E1681B790B7C
:1011700080E090E00E94CE1520E030E044EB53E4A4
:101180000E945C1620E030E040E859E30E945C16C3
:101190000E94A2156C177D0738F49E01261B370BA1
:1011A000B90181E090E004C06C1B7D0B8FEF9FEFD5
:1011B000653B71051CF09195819591096091040141
:1011C0000E94950781E0DF91CF910895AAE0B0E0F9
:1011D000ECEEF8E00C943E178C0182E293E09A83E7
:1011E00089831B821C821D821E821F82188619869B
:1011F0001A86D801ED91FC910190F081E02DAE01AD
:101200004F5F5F4F6AE070E0C80109950E941215B8
:10121000F80160877187828793872A96E4E00C94AF
:101220005A17AEE0B0E0E7E1F9E00C9432178C0118
:101230008EE293E09A8389831C821B828EED92E07A
:101240009E838D8398878F839A8789871B861C86C8
:101250001D861E86580182E3A80EB11C780198E114
:10126000492E55245394612C712C6701ACEBCA1A9A
:10127000ADEFDA0AD601ED91FC913097B9F1848196
:1012800095819C838B83808191819E838D838281D4
:101290009381DC01ED91FC910480F581E02D0995AD
:1012A00098878F83D601ED91FC9182819381DC0137
:1012B000ED91FC910680F781E02D09959A87898749
:1012C0004B865C866D867E86F80180819181F60171
:1012D000A081B18118966D917C911997DC01ED91F7
:1012E000FC91AE014F5F5F4FC8010995B2E0EB0E74
:1012F000F11CEA14FB0409F0B8CF780188E1482E0C
:1013000055245394612C712C6701EAE8CE1AEDEF55
:10131000DE0AF601A081B1811097E1F112968D915C
:101320009C9113979C838B8314968D919C91159718
:101330009E838D83ED91FC9111970480F581E02DC2
:10134000CD01099598878F83D6018D919C91DC0101
:10135000ED91FC910680F781E02D09959A878987A8
:101360004B865C866D867E86D801ED91FC918080EF
:101370009180F60180819181DC01ED91FC910280E8
:10138000F381E02D0995AE014F5F5F4FBC01C801AD
:10139000F4010995F2E0EF0EF11CEA14FB0409F0E8
:1013A000B3CFF801EE54FD4F81E080832E96E0E14B
:1013B0000C944E17AAE0B0E0E0EEF9E00C9436177A
:1013C0008C015B0182E293E09A8389831B821C82F9
:1013D0001D821E821F82188619861A860E94121587
:1013E0006B017C01F80180859185A285B385C81ABF
:1013F000D90AEA0AFB0AB501CE0101960E94AA00A9
:1014000028EE822E23E0922EA12CB12CC701B6012A
:10141000A50194010E94EF1669017A019B01AC01BC
:101420008B819C81AD81BE818C0D9D1DAE1DBF1D2C
:101430008B839C83AD83BE8360E472E48FE090E095
:101440000E94BF16CF80D884E984FA84C60ED71EC6
:10145000E81EF91ECF82D886E986FA860E94121508
:10146000CB80DC80ED80FE80F1E0CF1AD108E1086E
:10147000F108A50194010E94EF1649015A019B0150
:10148000AC01C818D908EA08FB08F801C486D5865B
:10149000E686F786CF80D884E984FA84F6E3DF1AFB
:1014A000F5E6EF0AF4ECFF0A60E472E48FE090E006
:1014B0000E94BF16C61AD70AE80AF90AF801C08ABC
:1014C000D18AE28AF38AB801605F7F4FC8010C9627
:1014D0000E94490D0E941215F801E954FD4F6083E6
:1014E0007183828393832A96ECE00C945217A0E1D7
:1014F000B0E0EDE7FAE00C9430174C010E941215B1
:101500006B017C01940129543D4F3E832D83F901E9
:1015100080819181A281B381A7019601281B390B9B
:101520004A0B5B0BDA01C901893F9A42A105B1055B
:1015300020F0F401EE54FD4F1082A40148555D4F98
:10154000588B4F87DA018D919C91892B79F0F401AA
:10155000E554FD4F80819181A281B3818C159D0559
:10156000AE05BF0518F4FA01118210823401F0E5CE
:101570006F1AFDEF7F0A940124553D4F3A8329836A
:10158000A4014E545D4F58874F83940120543D4F22
:101590003C872B87A40141545D4F5E874D878401B2
:1015A00006551D4F1601270154E1250E311C411C23
:1015B000511C540184E1A80EB11C940122553D4FE9
:1015C0003C832B83A40145545D4F5A874987D4013E
:1015D00012968D919C911397DC01ED91FC91068000
:1015E000F781E02D09959C0197FD2DC1F3018081C4
:1015F0009181820F931F91838083AF85B8894D912C
:101600005C9147305105E1F4EB81FC81808191814F
:10161000AC014F5F5F4F51834083F401E80FF91F26
:10162000248BD8018D919C91119701978D939C9358
:10163000892B09F0BECF28E030E0EF85F88987C01C
:101640004115510519F52F3F310569F481E090E00E
:10165000AF85B8898D939C93E985FA852082318284
:1016600042825382B4CF0E9412156C197D098E09F3
:101670009F09663071058105910508F49ACFF40140
:10168000EE54FD4F10828EEF9FEF03C141305105A4
:1016900099F42E3F310519F482E090E02FC0EF85D8
:1016A000F88911821082AF81B8858C91811181CF28
:1016B000C4010E94E6088BCF4230510589F4F8013D
:1016C00031832083AB81BC811D921C9283E090E02A
:1016D000EF85F88991838083D3012D933C9377CF55
:1016E0004330510581F4322F2227F8018081918106
:1016F000820F931F9183808384E090E0AF85B88947
:101700008D939C9364CF4430510599F460E071E06F
:101710000E94DB168F3F910539F485E090E0EF855C
:10172000F8899183808353CFAF85B8891D921C922D
:101730004ECF4530510571F4E981FA813183208320
:1017400086E090E0AF85B8898D939C93F301318357
:1017500020833DCF46305105D1F4322F2227A98175
:10176000BA818D919C911197820F931F8D939C93B9
:1017700027E030E0EF85F88931832083D8018D910F
:101780009C91892B09F015CF28E030E0E0CF48305C
:10179000510509F00ECFAF85B8891D921C9260E00B
:1017A00071E00E94DB168F3F910509F002CFA981FD
:1017B000BA81ED91FC913097B1F4C4010E94E60822
:1017C000C4010E941109F401ED54FD4FC082D18281
:1017D000E282F382ED81FE81C082D182E282F382D5
:1017E0008FEF9FEF56C0EA30F10529F4B501C4012F
:1017F0000E94DA09ECCEE630F10551F4B5018B8593
:101800009C850E949C0481E0AD85BE858C93DFCED3
:10181000EB30F10521F4EF81F8851082D8CEE95242
:10182000FF4FEE0FFF1FE80DF91D8081918100979A
:1018300009F4BFCEDC01ED91FC910190F081E02D27
:10184000B5010995C4CEF401EE54FD4F8081882383
:10185000F1F084010D541D4FF80180819181A28126
:10186000B381A7019601281B390B4A0B5B0BDA01E8
:10187000C901853C9940A105B10548F0C4010E9409
:10188000E608D801CD92DD92ED92FC92139780E0AC
:1018900090E06096E2E10C944C178091CE0388238F
:1018A00041F0609104017091050180E090E00E9498
:1018B000AF088091CD03882341F0609104017091BD
:1018C000050184EB90E00E94AF088091CB03882350
:1018D00041F0609104017091050184EB90E00E9459
:1018E000AF088091CC03882341F06091040170918E
:1018F000050180E090E00E94AF088091CA03882330
:1019000041F060910401709105018AE590E00E9428
:10191000AF088091C903882341F060910401709160
:1019200005018EE091E00E94AF088FEC93E00E94E9
:10193000770A61E070E080E090E00E944115089530
:1019400086E793E09093D0038093CF038AEC96E0F0
:101950009093D2038093D10380E091EEA0E0B0E0B9
:101960008093D3039093D403A093D503B093D6036D
:101970001092810686E493E09093900680938F0600
:101980001092910610929706109296061092980661
:1019900010929E0610929D0610929F061092A3062A
:1019A0001092A206E3E1F6E01192119286E0E5348E
:1019B000F807D1F7E5E4F6E01192119286E0E737F7
:1019C000F807D1F7E3EEF3E0119284E0EB3FF8077C
:1019D000D9F7EBEFF4E0119286E0E331F807D9F79D
:1019E00080EC93E00E94640E80E893E0909399036A
:1019F000809398038AE693E090939F0380939E03DD
:101A00008EE593E09093A1038093A0031092A2032C
:101A100082E593E09093A4038093A3038EED92E07C
:101A20009093A6038093A5031092A7031092A80396
:101A30001092A9031092AA031092AB031092AC0368
:101A40001092AD031092AE031092B0031092AF0348
:101A50001092B1031092B2031092B3031092B40328
:101A60001092B5031092BB031092BA0380EC97E07A
:101A70009093BD038093BC0381E090E09093BF03FB
:101A80008093BE0382EF92E090939D0380939C032A
:101A90000895A0E0B0E0EFE4FDE00C943A178C016B
:101AA000EB01688179818A819B8120E03AEC4AE9E7
:101AB0005BE30E94EF16F801C080D180E280F380E2
:101AC000C20ED31EE41EF51EC082D182E282F382D2
:101AD000688379838A839B83CDB7DEB7E8E00C9473
:101AE000561761E08AE00E94951461E08AE00E9446
:101AF0005C148CB580618CBD8CB580648CBD61E05C
:101B00008DE00E945C1461E08BE00E945C140895FB
:101B10008CB58F7B8CBD0895811103C08CB580621C
:101B200002C08CB58F7D8CBD08959CB5937F982B9A
:101B30009CBD08952CB5982F93702C7F922B9CBD43
:101B40009DB582FB882780F99E7F982B9DBD0895C7
:101B50001F920F920FB60F9211242F933F934F9322
:101B60005F936F937F938F939F93AF93BF93EF9305
:101B7000FF938091A50687FF05C010928500109203
:101B800084001AC02091A506332727FD3095809147
:101B9000A40690E0281739077CF48091A5069927C0
:101BA00087FD9095FC01EE0FFF1FE80FF91FEA5526
:101BB000F94F808186FD15C08091A5068F5F8093C7
:101BC000A5062091A506332727FD30958091A40610
:101BD00090E028173907BCF48091A5068C305CF1A1
:101BE00012C08091A506992787FD9095FC01EE0F04
:101BF000FF1FE80FF91FEA55F94F808160E08F73EE
:101C00000E949514D9CF809184009091850004960C
:101C100080349C4918F480E49CE905C080918400DC
:101C200090918500049690938900809388008FEFAF
:101C30008093A50638C08091840090918500209102
:101C4000A506332727FD3095F901EE0FFF1FE20FA0
:101C5000F31FEA55F94F21813281820F931F909330
:101C60008900809388008091A506992787FD90952B
:101C7000FC01EE0FFF1FE80FF91FEA55F94F8081B5
:101C800086FF11C08091A506992787FD9095FC01DC
:101C9000EE0FFF1FE80FF91FEA55F94F808161E051
:101CA0008F730E949514FF91EF91BF91AF919F9117
:101CB0008F917F916F915F914F913F912F910F90F5
:101CC0000FBE0F901F9018952091A4062C30A0F401
:101CD00031E0320F3093A406FC012083822F90E084
:101CE000FC01EE0FFF1FE80FF91FEA55F94F88EBD3
:101CF0009BE09283818308952FEFFC012083089558
:101D0000A0E0B0E0E6E8FEE00C943B17EC01D62E34
:101D10007A01890188818C3008F066C061E08D2DE0
:101D20000E945C148881A82FB0E0FD01EE0FFF1F18
:101D3000EA0FFB1FEA55F94F2D2D2F739081907CF0
:101D4000922B908360E272E06E197F0977FF02C0E8
:101D50006D5F7F4F7595679575956795698340E6CB
:101D600059E0401B510B57FF02C04D5F5F4F559527
:101D70004795559547954A836CE00E94CF169CE0A5
:101D8000899FB001112420E030E0A901460F571FC0
:101D9000FA01EE0FFF1FE40FF51FEA55F94F90818E
:101DA00096FD16C02F5F3F4F2C30310571F7811122
:101DB0000FC01092800082E0809381001092850015
:101DC00010928400B19A80916F00826080936F00BE
:101DD000888190E0FC01EE0FFF1FE80FF91FEA5524
:101DE000F94F8081806480838881CDB7DEB7E7E0DA
:101DF0000C94571720E639E040E252E00E94800E32
:101E00000895FC0180818C3070F5918128E830E0E4
:101E1000291B310997FD3395220F331F220F331FE2
:101E2000621773077CF0928128E532E0291B3109A3
:101E300097FD3395220F331F220F331F621773074D
:101E40000CF49B014FB7F89490E0FC01EE0FFF1FDC
:101E5000E80FF91FEA55F94F22503109220F331FBD
:101E6000328321834FBF08954F925F926F927F928A
:101E7000AF92BF92CF92DF92EF92FF920F931F9398
:101E8000CF93DF93EC01603282E078070CF040C022
:101E900077FD06C0653B71052CF064EB70E002C075
:101EA00060E070E0898128E830E0281B310987FD77
:101EB0003395220F331F220F331F5901CC24B7FC57
:101EC000C094DC2C882777FD8095982F2A8148E5DF
:101ED00052E0421B510927FD5395440F551F440FF3
:101EE000551F2A01662457FC6094762C7F926F92CE
:101EF0005F924F9214EBE12EF12C00E010E020E015
:101F000030E0A9010E949A0F0F900F900F900F9050
:101F1000CE010E94010FDF91CF911F910F91FF9091
:101F2000EF90DF90CF90BF90AF907F906F905F90D9
:101F30004F9008954F925F926F927F92AF92BF92AF
:101F4000CF92DF92EF92FF920F931F93CF93DF9385
:101F5000CDB7DEB729013A01621B730B840B950BD9
:101F600029893A894B895C892A193B094C095D0901
:101F7000298B3A8B4B8B5C8B9B01AC0169897A89ED
:101F80008B899C890E94BF16E418F5080609170979
:101F9000A80197010E9411172A0D3B1D4C1D5D1DC4
:101FA000CA01B901DF91CF911F910F91FF90EF907E
:101FB000DF90CF90BF90AF907F906F905F904F90E9
:101FC0000895A0E0B0E0E7EEFFE00C943A176C0152
:101FD0007A01EB01E60EF71E00E010E0CE15DF05FA
:101FE00061F06991D601ED91FC910190F081E02DB5
:101FF000C6010995080F191FF1CFC801CDB7DEB78B
:10200000E8E00C9456176115710589F0DB010D901D
:102010000020E9F7AD0141505109461B570BDC0187
:10202000ED91FC910280F381E02D0995089580E007
:1020300090E00895DC01ED91FC910190F081E02D9C
:10204000099508950F931F93CF93DF93EC016DE0F3
:102050000E941A108C016AE0CE010E941A10800FB3
:10206000911FDF91CF911F910F9108950F931F93AF
:10207000CF93DF93EC010E9403108C01CE010E94EC
:102080002210800F911FDF91CF911F910F91089522
:102090000E9467150E942B07C7E2D1E10E944D0CF8
:1020A0002097E1F30E942711F9CFFC0124853585A3
:1020B000F901E05CFF4F80819181F901EE5BFF4FF8
:1020C00020813181821B930B8F7399270895FC0126
:1020D00084859585FC01E05CFF4F40815181FC01C6
:1020E000EE5BFF4F208131814217530741F0019091
:1020F000F081E02DE80FF91F808190E008958FEFC7
:102100009FEF0895FC0184859585FC01E05CFF4FFD
:1021100040815181FC01EE5BFF4F208131814217EC
:10212000530779F0A081B181A80FB91F8C9120814C
:1021300031812F5F3F4F2F7333273183208390E00E
:1021400008958FEF9FEF0895FC0181A1882329F066
:10215000A489B5898C9186FFFBCF11A20895CF93F6
:10216000DF93FC0126853785D901A05CBF4F8D9197
:102170009C91119701968F739927E901CE5BDF4FF0
:102180004881598184179507D9F30D90BC91A02DF2
:10219000A20FB31F6C93A685B785A05CBF4F1196A5
:1021A0009C938E93A689B7892C9181E090E0078C4F
:1021B00002C0880F991F0A94E2F7282B2C9381E024
:1021C00081A30488F589E02D80818064808381E08B
:1021D00090E0DF91CF91089508951F920F920FB66E
:1021E0000F9211242F933F934F938F939F93EF93CD
:1021F000FF938091C00082FD1CC04091C600809179
:1022000070079091710701968F739927209172073B
:10221000309173078217930771F0E0917007F09186
:102220007107E05DF84F40839093710780937007CA
:1022300002C08091C600FF91EF919F918F914F91C5
:102240003F912F910F900FBE0F901F9018958AEC21
:1022500096E00E945510892B11F00E94EC10089511
:102260001F920F920FB60F9211242F933F938F93CB
:102270009F93EF93FF9320912C0730912D0780912E
:102280002E0790912F072817390731F48091C1004C
:102290008F7D8093C10014C0E0912E07F0912F072D
:1022A000E451F94F208180912E0790912F070196DC
:1022B0008F73992790932F0780932E072093C60042
:1022C000FF91EF919F918F913F912F910F900FBEB2
:1022D0000F901F901895CF92DF92EF92FF92CF93BD
:1022E000DF93EC016A017B01411581EE580761051E
:1022F0007105F9F0EC89FD8981E090E008A002C049
:10230000880F991F0A94E2F7808360E079E08DE3FB
:1023100090E0A70196010E94EF1621503109410972
:1023200051095695479537952795211580E138072E
:1023300098F0EC89FD89108260E874E88EE190E005
:10234000A70196010E94EF16215031094109510958
:102350005695479537952795E889F9893083EA8915
:10236000FB89208319A2EE89FF89408181E090E0FA
:102370009C010C8C02C0220F331F0A94E2F7422BFF
:102380004083EE89FF8940819C010D8C02C0220FA1
:10239000331F0A94E2F7422B4083EE89FF89408184
:1023A0009C010E8C02C0220F331F0A94E2F7422BCD
:1023B0004083EE89FF8920810F8C02C0880F991F0E
:1023C0000A94E2F7809582238083DF91CF91FF907A
:1023D000EF90DF90CF9008951092CD061092CC062A
:1023E00088EE93E0A0E0B0E08093CE069093CF0615
:1023F000A093D006B093D1068CE893E09093CB06DF
:102400008093CA0680E397E09093D7068093D60620
:102410008CEE96E09093D9068093D80685EC90E0F8
:102420009093DB068093DA0684EC90E09093DD06CF
:102430008093DC0680EC90E09093DF068093DE06CC
:1024400081EC90E09093E1068093E00682EC90E0CE
:102450009093E3068093E20686EC90E09093E50685
:102460008093E40684E08093E60683E08093E706A9
:1024700087E08093E80685E08093E90681E0809319
:10248000EA060895CF93DF938230910510F482E03D
:1024900090E0E0917F07F091800720E030E0A0E03D
:1024A000B0E0309739F14081518148175907B8F0B1
:1024B0004817590771F482819381109729F0139678
:1024C0009C938E9312972CC09093800780937F07E4
:1024D00027C02115310531F04217530718F0A90123
:1024E000DB0101C0EF019A01BD01DF010280F38130
:1024F000E02DD7CF21153105F9F0281B390B2430F9
:10250000310580F48A819B816115710521F0FB0101
:102510009383828304C09093800780937F07FE019A
:10252000329644C0FE01E20FF31F81939193225033
:102530003109398328833AC020917D0730917E0785
:10254000232B41F4209108013091090130937E073B
:1025500020937D0720910601309107012115310557
:1025600041F42DB73EB740910A0150910B01241B55
:10257000350BE0917D07F0917E07E217F307A0F499
:102580002E1B3F0B2817390778F0AC014E5F5F4FC9
:102590002417350748F04E0F5F1F50937E07409376
:1025A0007D078193919302C0E0E0F0E0CF01DF91DD
:1025B000CF910895CF93DF93009709F487C0FC0172
:1025C000329713821282C0917F07D09180072097A3
:1025D00081F420813181280F391F80917D079091EE
:1025E0007E078217930779F5F0937E07E0937D07C6
:1025F0006DC0DE0120E030E0AE17BF0750F4129648
:102600004D915C9113979D014115510509F1DA0136
:10261000F3CFB383A28340815181840F951F8A1722
:102620009B0771F48D919C911197840F951F0296D1
:102630009183808312968D919C91139793838283CB
:102640002115310529F4F0938007E0937F073EC000
:10265000D9011396FC93EE9312974D915D91A40FBF
:10266000B51FEA17FB0779F480819181840F951FCC
:102670000296D90111969C938E9382819381139631
:102680009C938E931297E0E0F0E08A819B81009703
:1026900019F0FE01EC01F9CFCE01029628813981B3
:1026A000820F931F20917D0730917E0728173907ED
:1026B00069F4309729F41092800710927F0702C0C6
:1026C00013821282D0937E07C0937D07DF91CF9152
:1026D0000895A0E0B0E0EFE6F3E10C943417EC01CC
:1026E000CB01209719F40E944212B8C0FE01E60FF8
:1026F000F71F9E0122503109E217F30708F4ACC01E
:10270000D9010D911C91119706171707B8F00530E4
:10271000110508F49FC0A8014450510946175707F6
:1027200008F498C002501109061B170B019311936E
:102730006D937C93CF010E94DA128CC05B01A01ACA
:10274000B10A4E01800E911EA0917F07B0918007C3
:10275000612C712C60E070E0109709F449C0A81555
:10276000B905C9F5ED90FC901197670142E0C40EE0
:10277000D11CCA14DB0478F147018A189B08640154
:1027800042E0C40ED11C1296BC9012971396AC91E5
:10279000B5E0CB16D10440F0B282A383918280824F
:1027A000D9018D939C9309C00E5F1F4F0E0D1F1D05
:1027B000F90111830083EB2DFA2F6115710531F0BA
:1027C000DB011396FC93EE93129744C0F0938007BD
:1027D000E0937F073FC06D917C9111976616770655
:1027E00008F43B01BD0112960D90BC91A02DB4CF11
:1027F00060917D0770917E0768157905E9F4681688
:102800007906D0F440910601509107014115510518
:1028100041F44DB75EB760910A0170910B01461B00
:10282000570BE417F507C0F4F0937E07E0937D079C
:10283000F901918380830EC00E9442127C010097AF
:1028400059F0A801BE010E949B17CE010E94DA1226
:10285000C70104C0CE0102C080E090E0CDB7DEB772
:10286000EEE00C945017833081F028F4813099F019
:102870008230A1F008958630A9F08730B9F0843015
:10288000D1F4809180008F7D03C0809180008F778C
:1028900080938000089584B58F7702C084B58F7DC2
:1028A00084BD08958091B0008F7703C08091B000FF
:1028B0008F7D8093B0000895CF93DF9390E0FC016B
:1028C000E458FF4F2491FC01E057FF4F8491882387
:1028D00049F190E0880F991FFC01E255FF4FA59147
:1028E000B4918C559F4FFC01C591D4919FB7611154
:1028F00008C0F8948C91209582238C938881822340
:102900000AC0623051F4F8948C91322F30958323B1
:102910008C938881822B888304C0F8948C91822BBD
:102920008C939FBFDF91CF910895A1E0B0E0EBE9D8
:10293000F4E10C943E17282F30E0F901E859FF4FDD
:102940008491F901E458FF4F1491F901E057FF4FCA
:1029500004910023C9F0882321F069830E94331475
:102960006981E02FF0E0EE0FFF1FEC55FF4FA591BE
:10297000B4919FB7F8948C91611103C01095812395
:1029800001C0812B8C939FBF2196E4E00C945A17D1
:102990001F920F920FB60F9211242F933F938F9394
:1029A0009F93AF93BF938091750790917607A09105
:1029B0007707B09178073091740723E0230F2D3704
:1029C00020F40196A11DB11D05C026E8230F029633
:1029D000A11DB11D2093740780937507909376070E
:1029E000A0937707B09378078091790790917A0741
:1029F000A0917B07B0917C070196A11DB11D80932A
:102A0000790790937A07A0937B07B0937C07BF91D7
:102A1000AF919F918F913F912F910F900FBE0F908B
:102A20001F9018952FB7F8946091750770917607ED
:102A300080917707909178072FBF08953FB7F8945A
:102A40008091790790917A07A0917B07B0917C07DC
:102A500026B5A89B05C02F3F19F00196A11DB11DF9
:102A60003FBF6627782F892F9A2F620F711D811D16
:102A7000911D42E0660F771F881F991F4A95D1F775
:102A80000895CF92DF92EF92FF92CF93DF936B0185
:102A90007C010E941E15EB01C114D104E104F10474
:102AA00079F00E941E156C1B7D0B683E7340A0F3ED
:102AB00081E0C81AD108E108F108C851DC4FECCF19
:102AC000DF91CF91FF90EF90DF90CF9008957894B1
:102AD00084B5826084BD84B5816084BD85B5826023
:102AE00085BD85B5816085BDEEE6F0E080818160C1
:102AF0008083E1E8F0E010828081826080838081C1
:102B000081608083E0E8F0E0808181608083E1EB98
:102B1000F0E0808184608083E0EBF0E08081816080
:102B20008083EAE7F0E08081846080838081826036
:102B3000808380818160808380818068808310921F
:102B4000C100089598D088F09F5790F0B92F992729
:102B5000B751A0F0D1F0660F771F881F991F1AF0A8
:102B6000BA95C9F712C0B13081F09FD0B1E0089595
:102B70009CC0672F782F8827B85F39F0B93FCCF316
:102B8000869577956795B395D9F73EF4909580959E
:102B9000709561957F4F8F4F9F4F0895E89409C0BE
:102BA00097FB3EF490958095709561957F4F8F4F80
:102BB0009F4F9923A9F0F92F96E9BB279395F69596
:102BC000879577956795B795F111F8CFFAF4BB0F14
:102BD00011F460FF1BC06F5F7F4F8F4F9F4F16C078
:102BE000882311F096E911C0772321F09EE8872F02
:102BF000762F05C0662371F096E8862F70E060E0BE
:102C00002AF09A95660F771F881FDAF7880F969536
:102C1000879597F9089597F99F6780E870E060E0DD
:102C200008959FEF80EC089500240A941616170665
:102C300018060906089500240A94121613061406AD
:102C400005060895092E0394000C11F4882352F010
:102C5000BB0F40F4BF2B11F460FF04C06F5F7F4FC8
:102C60008F4F9F4F089557FD9058440F551F59F0AF
:102C70005F3F71F04795880F97FB991F61F09F3F69
:102C800079F087950895121613061406551FF2CF92
:102C90004695F1DF08C0161617061806991FF1CFE2
:102CA00086957105610508940895E894BB27662709
:102CB0007727CB0197F908950BD0C4CFB5DF28F063
:102CC000BADF18F0952309F0A6CFABCF1124EECFD1
:102CD000CADFA0F3959FD1F3950F50E0551F629F77
:102CE000F001729FBB27F00DB11D639FAA27F00D65
:102CF000B11DAA1F649F6627B00DA11D661F829F8C
:102D00002227B00DA11D621F739FB00DA11D621F70
:102D1000839FA00D611D221F749F3327A00D611D8D
:102D2000231F849F600D211D822F762F6A2F11246F
:102D30009F5750408AF0E1F088234AF0EE0FFF1FC2
:102D4000BB1F661F771F881F91505040A9F79E3FF9
:102D5000510570F060CFAACF5F3FECF3983EDCF3F3
:102D6000869577956795B795F795E7959F5FC1F736
:102D7000FE2B880F911D9695879597F90895DB0195
:102D80008F939F930E946717BF91AF91A29F800D71
:102D9000911DA39F900DB29F900D11240895991B32
:102DA00079E004C0991F961708F0961B881F7A9542
:102DB000C9F78095089597FB072E16F4009407D065
:102DC00077FD09D00E94721707FC05D03EF490955C
:102DD00081959F4F0895709561957F4F0895A1E269
:102DE0001A2EAA1BBB1BFD010DC0AA1FBB1FEE1F85
:102DF000FF1FA217B307E407F50720F0A21BB30BD0
:102E0000E40BF50B661F771F881F991F1A9469F74B
:102E100060957095809590959B01AC01BD01CF01A7
:102E20000895052E97FB1EF400940E94281757FD65
:102E300007D00E94EF1607FC03D04EF40C9428171D
:102E400050954095309521953F4F4F4F5F4F0895D6
:102E500090958095709561957F4F8F4F9F4F089506
:102E60002F923F924F925F926F927F928F929F929A
:102E7000AF92BF92CF92DF92EF92FF920F931F9388
:102E8000CF93DF93CDB7DEB7CA1BDB0B0FB6F89439
:102E9000DEBF0FBECDBF09942A88398848885F8479
:102EA0006E847D848C849B84AA84B984C884DF80EA
:102EB000EE80FD800C811B81AA81B981CE0FD11DCE
:102EC0000FB6F894DEBF0FBECDBFED0108950E948E
:102ED0008C17A59F900DB49F900DA49F800D911D00
:102EE00011240895AA1BBB1B51E107C0AA1FBB1FD9
:102EF000A617B70710F0A61BB70B881F991F5A9586
:102F0000A9F780959095BC01CD010895EE0FFF1FA4
:102F10000590F491E02D0994A29FB001B39FC001E8
:102F2000A39F700D811D1124911DB29F700D811DF5
:102F30001124911D0895FB01DC0102C001900D9246
:0C2F400041505040D8F70895F894FFCF9E
:102F4C000100000012000000810780007374645FB0
:102F5C006D7367732F54696D650063643731363652
:102F6C0063373463353532633331316662636332D0
:102F7C006665356137626332383900726F73736519
:102F8C007269616C5F6D7367732F546F70696349FD
:102F9C006E666F0030616435316638386663343480
:102FAC003839326638633130363834303737363466
:102FBC003630303500726F7373657269616C5F6D9A
:102FCC007367732F4C6F6700313161626437333133
:102FDC0063323539333332363163643631383362E8
:102FEC0064313264363239350039663065393862CD
:102FFC006461363539383139383664646635336155
:10300C00666137613430653439007374645F6D7395
:10301C0067732F4D756C7469417272617944696D77
:10302C00656E73696F6E0034636430633833613876
:10303C00363833646561653430656364616336309A
:10304C0065353362666138007374645F6D736773E2
:10305C002F4D756C746941727261794C61796F7521
:10306C0074003066656432613131633133653131FE
:10307C00633535373162346532613939356139310F
:10308C006133007374645F6D7367732F496E7433AF
:10309C00324D756C746941727261790031643939E1
:1030AC006637396638623332356234346665653971
:1030BC00303830353365396339343562004D6573DA
:1030CC00736167652066726F6D20646576696365F0
:1030DC002064726F707065643A206D6573736167FC
:1030EC0065206C6172676572207468616E20627510
:1030FC00666665722E0050726F6772616D20537434
:10310C006172740045786365656473206D6F746FCC
:10311C00722073706565642072616E67652E00495C
:10312C006E76616C696420646972656374696F6E34
:10313C002E00636F6E74726F6C5F636F6D6D616E7A
:10314C006400726F7373657269616C5F6D73677322
:10315C002F52657175657374506172616D0000005A
:10316C0000008800AA00F000F30000000000150326
:10317C00F600BC01BF01000000009303C20106026F
:10318C00090200000000BF039C040C020F020000A7
:10319C0000006104120284028702000000008A020F
:1031AC00B005CA02CD0200000000D00212060003D6
:1031BC000303000000008E06770A100300000000D5
:1031CC007A0606030A030D0300000000AF10E10F9E
:0831DC00551082106710A410C9
:00000001FF
