:100000000C945E000C9486000C9486000C94860080
:100010000C9486000C9486000C9486000C94860048
:100020000C9486000C9486000C9486000C942F0E81
:100030000C9486000C9486000C9486000C94860028
:100040000C944F150C9486000C9474110C94B711F9
:100050000C9486000C9486000C9486000C94860008
:100060000C9486000C94860000000007000201003A
:100070000003040600000000000000000102040864
:100080001020408001020408102001020408102002
:10009000040404040404040402020202020203032E
:1000A0000303030300000000250028002B000000CC
:1000B0000000240027002A00090D731211241FBE1E
:1000C000CFEFD8E0DEBFCDBF13E0A0E0B1E0EAE5BE
:1000D000F0E302C005900D92AC3DB107D9F717E0EF
:1000E000ACEDB3E001C01D92A33DB107E1F710E014
:1000F000CCEBD0E004C02297FE010E940F18C83B51
:10010000D107C9F70E94CF100C942B180C94000053
:10011000FC01DB0182818C93838111968C93119772
:10012000848112968C931297858113968C931397E2
:10013000868114968C931497878115968C931597C6
:10014000808516968C931697818517968C9388E0F8
:1001500090E00895FC01DB014C9150E060E070E01C
:10016000428353836483758311968C911197582B26
:10017000428353836483758312968C911297682B04
:10018000428353836483758313968C911397782BE2
:10019000428353836483758314964C91149750E083
:1001A00060E070E0468357836087718715968C9175
:1001B0001597582B468357836087718716968C91C5
:1001C0001697682B468357836087718717968C91A3
:1001D000782B468357836087718788E090E0089585
:1001E0008CE091E008958AE191E00895A0E0B0E00C
:1001F000ECEFF0E00C94BB17FC01DB018C9190E07C
:100200009383828311962C911197922B93838283EF
:1002100012964D915D916D917C9115975D0186E0EF
:10022000A80EB11C8A019B010A5F1F4F2F4F3F4F41
:100230006501CA1ADB0AE12CF12CC016D106E206D0
:10024000F30640F4E501F9905E01CE010297EC015E
:10025000F882EECFED01C40FD51F1D82CD010596AA
:1002600095838483ED01C40FD51FCE80DF80E884A1
:10027000F984465F5F4F3D01640E751E8A01222797
:1002800017FD2095322F0C0D1D1D2E1D3F1D430106
:100290008A1A9B0AA12CB12C80169106A206B306DD
:1002A00040F4E30169913E01CE010297EC016883BD
:1002B000EECFC40ED51E9D012C0D3D1DC901019729
:1002C000EC011882415051094A0F5B1F5783468346
:1002D000E901088119812A813B81D4E0CD0ED11C2E
:1002E0003D016C0C7D1CA601662757FD6095762F9D
:1002F000400F511F621F731F43018A1A9B0AA12CD2
:10030000B12C84169506A606B70640F4E301F990D1
:100310003E01CE010297EC01F882EECF0C0D1D1DBF
:100320009D01200F311FC9010197EC011882D1E016
:10033000CD1AD108CA0EDB1ED186C086D90111960E
:100340008C91119712964C91129750E060E070E0FA
:10035000BA0155274427582B8C91482B13968C9122
:10036000782B4287538764877587C8010496CDB779
:10037000DEB7EEE00C94D7178BE391E0089584E5A7
:1003800091E00895AF92BF92CF92DF92EF92FF92E9
:100390001F93CF93DF939C01FB018081D9011296BB
:1003A0008C9381819281A381B4815B01C5E0AC0E05
:1003B000B11CAC01BD014B5F5F4F6F4F7F4F6501BB
:1003C000CE1ADF0AE12CF12CC416D506E606F70694
:1003D00050F4E501D9905E017E01D2E0ED1AF108FA
:1003E000E701D882ECCFEF01C80FD91F1C823496E9
:1003F000E901FC83EB830596DF91CF911F91FF907C
:10040000EF90DF90CF90BF90AF90089585E791E097
:10041000089588E891E0089589E393E0089589EAD2
:1004200091E00895AF92BF92CF92DF92EF92FF9248
:100430001F93CF93DF935C019B01FB01819191910D
:10044000A191B191AC01BD014C5F5F4F6F4F7F4FE8
:100450006F01C21AD30AE12CF12CC416D506E606A8
:10046000F70640F4D1907F0112E0E11AF108E701AC
:10047000D882EECFF901E80FF91F13822D5F3F4FAD
:10048000F501338322830496DF91CF911F91FF9072
:10049000EF90DF90CF90BF90AF9008958AEC91E0FD
:1004A00008958AED91E00895AF92BF92CF92DF92C6
:1004B000EF92FF921F93CF93DF93FC019B01EB011F
:1004C00089919991A991B9915E01AC01BD014C5FEF
:1004D0005F4F6F4F7F4F6501C21AD30AE12CF12C99
:1004E000C416D506E606F70650F4E501D9905E017C
:1004F0007E01D2E0ED1AF108E701D882ECCFE901E4
:10050000C80FD91F1B822D5F3F4F338322834C813D
:1005100050E060E070E044835583668377832D81EB
:10052000522B44835583668377832E81622B4483C9
:100530005583668377832F81722B4483558366832B
:100540007783488550E060E070E04087518762879C
:1005500073872985522B40875187628773872A8545
:10056000622B40875187628773872B85722B408768
:100570005187628773870C96DF91CF911F91FF900F
:10058000EF90DF90CF90BF90AF9008958BEF91E008
:10059000089588E192E00895A0E0B0E0E2EDF2E095
:1005A0000C94C217EC018B018A81FB0180831182BC
:1005B00012821382D12C24E0E22EF12C8A81D80100
:1005C000AE0DBF1DD816A0F48F859889FCE0DF9E84
:1005D000800D911D1124FC0120813181F9012081C0
:1005E0003181BD01F9010995E80EF91ED394E6CFDA
:1005F00089898C938A8911968C9311978B8912968D
:100600008C9312978C8913968C93C7010496CDB75F
:10061000DEB7E7E00C94DE1789E392E0089583E506
:1006200092E008950F931F93CF93DF93EC018B011A
:1006300002960E94CC022F89F801E80FF91F20834F
:10064000118212820496138220E03F892317A8F4B6
:10065000EC8DFD8D34E0239FE00DF11D11246081B0
:10066000518142813381F801E80FF91F6083518382
:100670004283338304962F5FE8CFDF91CF911F91A0
:100680000F91089584E792E008958DE892E008952F
:10069000FC0186A197A1089584E792E008958DE872
:1006A00092E008958E549D4FFC0180810895A0E052
:1006B000B0E0EDE5F3E00C94BF17EC017B018A811B
:1006C000DB018C938B8111968C93EC81FD81DF0192
:1006D0000D900020E9F7CD0101976C01CE1ADF0AD9
:1006E000C601A0E0B0E0FB0182839383A483B583BD
:1006F0006C817D81A601C70106960E942218EE81B9
:10070000FF81DF010D900020E9F7CD0101975C0129
:10071000AE1ABF0AF701EC0DFD1D850120E030E0A7
:1007200006831783208731879AE0C90ED11C6E811A
:100730007F81A501C7018C0D9D1D0E942218CA0C46
:10074000DB1CE885F985DF010D900020E9F7CD017C
:1007500001975C01AE1ABF0AF701EC0DFD1D850182
:1007600020E030E0008311832283338394E0C90EBC
:10077000D11C68857985A501C7018C0D9D1D0E943E
:100780002218AC0CBD1C3A852B859C858D85F70104
:10079000EA0DFB1D3083218392838383C501049678
:1007A000CDB7DEB7EAE00C94DB170F931F93CF931E
:1007B000DF93DC01FB0112968C91129780831396D4
:1007C0008D919C911497EC0109900020E9F72197F5
:1007D000C81BD90B8E0120E030E0018312832383F4
:1007E000348313966D917C911497AE01CF010596D9
:1007F0000E942218CE010596DF91CF911F910F9193
:100800000895A0E0B0E0E7E0F4E00C94C017EC013C
:100810007B018A81DB018C9311961C9211971296B1
:100820001C92129713961C92FB01379640E024E02D
:1008300030E05A81C90104964517F0F4AF81B885BC
:1008400024E0429FA00DB11D11246C9111965C9182
:10085000119712963C91129713962C91DF011397E2
:100860006C93DF0112975C93DF0111973C93208317
:100870009C014F5F3496DDCF4985F701E20FF31FEE
:10088000408311821282138220E03985F701E80F3C
:10089000F91F04962317B0F4AE85BF8534E0239F7B
:1008A000A00DB11D11246C9111965C9111971296B7
:1008B0004C91129713963C9160835183428333830A
:1008C0002F5FE3CF28892083118212821382B12CFB
:1008D0002889B21698F54B2D50E0440F551FEB892F
:1008E000FC89E40FF51F0190F081E02DDF010D90F0
:1008F0000020E9F79D01215031096901CE1ADF0A74
:10090000F701E80FF91F860120E030E00083118332
:10091000228333838C010C5F1F4FEB89FC89E40F2A
:10092000F51F60817181A601C701800F911F0E9490
:100930002218C601800F911FB394CACFCDB7DEB77E
:10094000E9E00C94DC170F931F93CF93DF93DC0146
:100950001296ED91FC911397EF0109900020E9F7B1
:100960002197CE1BDF0B8E0120E030E0FB010193CD
:1009700011932193319312966D917C911397AE014F
:10098000CF010E942218CE010496DF91CF911F91D2
:100990000F910895A0E0B0E0E0EDF4E00C94C117F1
:1009A000EC016B01EA81FB81DF010D900020E9F78A
:1009B000CD0101977C01EE1AFF0A870120E030E0AB
:1009C000DB010D931D932D933D93CD016A817B81B6
:1009D000A7010E942218F601EE0DFF1D8C81848371
:1009E0008D8185838E8186838F81878388858087AB
:1009F000898581878A8582878B858387C7010C9645
:100A0000CDB7DEB7E8E00C94DD174F925F927F928E
:100A10008F929F92AF92BF92CF92DF92EF92FF920E
:100A20000F931F93CF93DF93EC018B01DB01FC90BD
:100A30008A818F1550F4B4E0FB9EB00111248F81A0
:100A400098850E94F01398878F83FA82F801379671
:100A5000F12C44E050E09E012D5F3F4F8A81BA01A6
:100A60006C5F7F4F6B01F81670F5408150E060E0DD
:100A700070E0742F662755274427DF0113978C9168
:100A8000482BDF0112978C91582BDF0111978C9125
:100A9000682B4B835C836D837E83A6016F81788591
:100AA00084E0F89E600D711D1124D9018D909D90F8
:100AB000AD90BC90DB018D929D92AD92BC9213974C
:100AC000F3943496CBCFF801E40FF51FF0808985BD
:100AD0008F1550F484E0F89EB00111248E859F8517
:100AE0000E94F0139F878E879601F98680E0FE01B1
:100AF0003A969985D801A20FB31FA9014C5F5F4FA9
:100B00006A01891748F511969C91119712964C919C
:100B1000129750E060E070E0BA0155274427592B46
:100B20009C91492B13969C91792B4A875B876C8704
:100B30007D879601AE85BF8594E0899FA00DB11D8C
:100B4000112440815181628173814D935D936D9336
:100B50007C9313978F5FCDCFFC9088898F1550F4CD
:100B60006F2D70E0660F771F8B899C890E94F013B0
:100B70009C8B8B8BC601F88A712C2E0151E1450E9E
:100B8000511C2889721608F044C0F801E80FF91FBB
:100B9000C080D180E280F3800496F801E80FF91F4D
:100BA000AC01662757FD6095762F4C0D5D1D6E1DBF
:100BB0007F1D9F01201B310B4901A12CB12C8416F4
:100BC0009506A606B70638F4B1909F012250310968
:100BD000D901BC92EECFC80ED91EF801EC0DFD1D57
:100BE000319710829C0121503109200F311F3A8B1F
:100BF000298BC6013B892C89E32FF22FE70DF11DCC
:100C0000E70DF11DD2012D913C9131832083739426
:100C1000B8CFDF91CF911F910F91FF90EF90DF90B0
:100C2000CF90BF90AF909F908F907F905F904F90AC
:100C30000895A0E0B0E0EFE1F6E00C94BF17EC01FE
:100C40007B01FB0110818A81811750F4FCE01F9F1A
:100C5000B00111248F8598890E94F013988B8F879B
:100C60001A83B12C04E010E06E0183E0C80ED11CA1
:100C7000BCE0AB2E8A81D701A00FB11FB816A8F433
:100C8000BD01C6010E945402080F191FAF85B88923
:100C9000ECE0BE9EA00DB11D1124F6018A2D01903D
:100CA0000D928A95E1F7B394E5CF4C9150E060E066
:100CB00070E0498B5A8B6B8B7C8B11968C911197C2
:100CC000582B498B5A8B6B8B7C8B12968C9112977D
:100CD000682B498B5A8B6B8B7C8B13968C91782B62
:100CE000498B5A8B6B8B7C8BC8010496CDB7DEB7D2
:100CF000EAE00C94DB17A0E0B0E0E1E8F6E00C9449
:100D0000C2178C01EB0102960E9419067C01FE01BC
:100D1000E80FF91FD080D80157968C918D1570F48B
:100D2000B4E0DB9EB0011124F801848D958D0E9402
:100D3000F013D8015D969C938E935C97C70104963F
:100D4000F801D78A20E07801F8E1EF0EF11CD80114
:100D500057963C91231790F5DE01A80FB91F119605
:100D60003C91119712964C91129750E060E070E020
:100D7000BA0155274427532B3C91432B13963C91A2
:100D8000732BD80158964D935D936D937C935B972D
:100D900004965C960D90BC91A02DE4E02E9FA00DD2
:100DA000B11D1124F70140815181628173814D93FE
:100DB0005D936D937C9313972F5FC9CFCDB7DEB74B
:100DC000E7E00C94DE170F931F93CF93DF93EC01B2
:100DD0008C010A5F1F4FC8010E947B06ECA1FDA198
:100DE000C8010995DF91CF911F910F910895A5E05A
:100DF000B0E0EDEFF6E00C94BF178C016B016436A8
:100E000071053CF0FC01EE54FD4F8081882309F40C
:100E100085C0DA01ED91FC910190F081E02DB801DF
:100E20006D5C7E4FCA0109957C015801B4EDAB1A87
:100E3000BEEFBB0A2FEFF50120832EEFF801E35D33
:100E4000FE4F2083F801E25DFE4F8083F801E15DF3
:100E5000FE4F9083890F8095F801E05DFE4F8083FF
:100E6000F801EF5CFE4FC082F801EE5CFE4FD082CD
:100E700085E090E020E030E0A701495F5F4F8417F4
:100E8000950750F4F801E80FF91FE45DFE4F60810B
:100E9000260F311D0196F3CFF8E0EF0EF11C400F45
:100EA000511FFA01E45DFE4F2095208329E1E216EF
:100EB00021E0F206C8F46501C6018A199B098E1566
:100EC0009F0584F4D80112968D919C911397F60199
:100ED00061916F01DC01ED91FC910190F081E02DB9
:100EE0000995EACFC7011CC081E793E09A83898303
:100EF00083E08B838EEA92E09D838C83D801ED9111
:100F0000FC910190F081E02DAE014F5F5F4F67E0F3
:100F100070E0C80109958FEF9FEF02C080E090E07C
:100F20002596EAE00C94DB1740E051EE60E070E0BB
:100F30008CE197E00E94F21167EE72E08CE197E09D
:100F40000E94BD1063E070E084E094E00E94810F95
:100F500061E082E00E94E31461E082E00E941C15DF
:100F60000E94F80D81E00E94130E80E00E941C0E8A
:100F700086E00E94210E60ED77E080E090E00E9424
:100F8000C8150E940F0E40912504509126046091CF
:100F900027047091280480912304909124040E94D6
:100FA000F2111092CA061092C9061092CC06109245
:100FB000CB061092D0061092CF061092CE06109259
:100FC000CD06E7E9F6E080E090E021913191232B16
:100FD00081F4FC01EE0FFF1FE956F94F2CED33E0D1
:100FE000318320838C599F4F9093DF038093DE03DE
:100FF000089501968931910541F70895CF93C82F3F
:101000006B3538F065EF72E08CE197E00E94BD101F
:101010006AE5C13021F470E0665A7F4F0CC0CF3FC3
:1010200031F48AE590E0861B9109BC0104C0C1112E
:1010300007C06AE570E084E094E00E94BB0F07C03F
:1010400060E173E08CE197E00E94BD1080E0CF91F9
:10105000089510921204109211041092100410922C
:101060000F0410920E0410920D04DC015C96ED91B9
:10107000FC915D9780A191A1A2A1B3A10197A105C7
:10108000B10581F080819181A281B3810197A10591
:10109000B10541F084819581A681B7810197A105B1
:1010A000B10539F46AE570E084E094E00E94BB0F7A
:1010B000089584A995A9A6A9B7A90197A105B10585
:1010C00019F462E381E00AC080AD91ADA2ADB3AD89
:1010D0000197A105B10529F462E38FEF0E94FE0795
:1010E000089580859185A285B3850197A105B105F5
:1010F00021F481E080931204089584859585A68566
:10110000B7850197A105B10521F481E08093110411
:10111000089580899189A289B3890197A105B105B4
:1011200021F481E080930F04089584899589A6892C
:10113000B7890197A105B10521F481E080931004DE
:101140000895808D918DA28DB38D0197A105B10574
:1011500021F481E080930E040895848D958DA68DF1
:10116000B78D0197A105B10519F481E080930D04B5
:101170000895CF93C82F60E082E00E941C15CEBD79
:101180000DB407FEFDCFCEB561E082E00E941C15D4
:101190008C2FCF910895CF93DF9310920C0410926F
:1011A0000B040E94F80D60E082E00E941C1580E1B3
:1011B0000E94B90880E00E94B908C82F80E0C031C1
:1011C00051F00E94B908C82F62E070E080E090E022
:1011D0000E94C815F3CF0E94B9088093070480E0ED
:1011E0000E94B9088093080461E082E00E941C1507
:1011F0000E940F0EC0910704CF70C0930704D0E087
:10120000DC2FCC2780910804C80FD11DD0930C048B
:10121000C0930B04D0930A04C093090465E070E006
:1012200080E090E00E94C815CE01DF91CF91089533
:10123000CF93DF93EC010E94CB0860E070E1681B64
:10124000790B80E090E00E94551620E030E044EBFE
:1012500053E40E94E31620E030E040E859E30E94A6
:10126000E3160E9429166C177D0738F49E01261B91
:10127000370BB90181E090E004C06C1B7D0B8FEF50
:101280009FEF653B71051CF09195819591096091E7
:1012900004010E94FE0781E0DF91CF910895AAE04A
:1012A000B0E0E5E5F9E00C94C5178C0189E593E021
:1012B0009A8389831B821C821D821E821F8218864C
:1012C00019861A86D801ED91FC910190F081E02DEC
:1012D000AE014F5F5F4F6AE070E0C80109950E9460
:1012E0009915F80160877187828793872A96E4E0D1
:1012F0000C94E117AEE0B0E0E0E8F9E00C94B91727
:101300008C0185E693E09A8389831C821B828FE09F
:1013100093E09E838D8398878F839A8789871B8626
:101320001C861D861E86580182E3A80EB11C78011A
:1013300098E1492E55245394612C712C6701ACEB34
:10134000CA1AADEFDA0AD601ED91FC913097B9F1E6
:10135000848195819C838B83808191819E838D8301
:1013600082819381DC01ED91FC910480F581E02D77
:10137000099598878F83D601ED91FC9182819381A5
:10138000DC01ED91FC910680F781E02D09959A87AB
:1013900089874B865C866D867E86F8018081918187
:1013A000F601A081B18118966D917C911997DC01AD
:1013B000ED91FC91AE014F5F5F4FC8010995B2E01E
:1013C000EB0EF11CEA14FB0409F0B8CF780188E1B8
:1013D000482E55245394612C712C6701EAE8CE1AEB
:1013E000EDEFDE0AF601A081B1811097E1F11296CE
:1013F0008D919C9113979C838B8314968D919C91D6
:1014000015979E838D83ED91FC9111970480F58152
:10141000E02DCD01099598878F83D6018D919C9100
:10142000DC01ED91FC910680F781E02D09959A870A
:1014300089874B865C866D867E86D801ED91FC910E
:1014400080809180F60180819181DC01ED91FC9199
:101450000280F381E02D0995AE014F5F5F4FBC0123
:10146000C801F4010995F2E0EF0EF11CEA14FB0447
:1014700009F0B3CFF801EE54FD4F81E080832E9642
:10148000E0E10C94D517AAE0B0E0E9E4FAE00C94AE
:10149000BD178C015B0189E593E09A8389831B82E8
:1014A0001C821D821E821F82188619861A860E943F
:1014B00099156B017C01F80180859185A285B38522
:1014C000C81AD90AEA0AFB0AB501CE0101960E94A0
:1014D000AA0028EE822E23E0922EA12CB12CC70167
:1014E000B601A50194010E94761769017A019B015A
:1014F000AC018B819C81AD81BE818C0D9D1DAE1D8B
:10150000BF1D8B839C83AD83BE8360E472E48FE058
:1015100090E00E944617CF80D884E984FA84C60EF2
:10152000D71EE81EF91ECF82D886E986FA860E9469
:101530009915CB80DC80ED80FE80F1E0CF1AD108D8
:10154000E108F108A50194010E94761749015A01AA
:101550009B01AC01C818D908EA08FB08F801C48649
:10156000D586E686F786CF80D884E984FA84F6E3C8
:10157000DF1AF5E6EF0AF4ECFF0A60E472E48FE0AC
:1015800090E00E944617C61AD70AE80AF90AF8013D
:10159000C08AD18AE28AF38AB801605F7F4FC801AE
:1015A0000C960E94D00D0E949915F801E954FD4F48
:1015B00060837183828393832A96ECE00C94D9171D
:1015C000A0E1B0E0E6EEFAE00C94B7174C010E94FF
:1015D00099156B017C01940129543D4F3E832D8365
:1015E000F90180819181A281B381A7019601281B15
:1015F000390B4A0B5B0BDA01C901893F9A42A105FD
:10160000B10520F0F401EE54FD4F1082A4014855BD
:101610005D4F588B4F87DA018D919C91892B79F022
:10162000F401E554FD4F80819181A281B3818C1535
:101630009D05AE05BF0518F4FA0111821082340130
:10164000F0E56F1AFDEF7F0A940124553D4F3A8370
:101650002983A4014E545D4F58874F839401205431
:101660003D4F3C872B87A40141545D4F5E874D87DA
:10167000840106551D4F1601270154E1250E311C2A
:10168000411C511C540184E1A80EB11C9401225547
:101690003D4F3C832B83A40145545D4F5A874987B6
:1016A000D40112968D919C911397DC01ED91FC91E0
:1016B0000680F781E02D09959C0197FD2DC1F3016E
:1016C00080819181820F931F91838083AF85B88938
:1016D0004D915C9147305105E1F4EB81FC818081B3
:1016E0009181AC014F5F5F4F51834083F401E80F5C
:1016F000F91F248BD8018D919C91119701978D939F
:101700009C93892B09F0BECF28E030E0EF85F88963
:1017100087C04115510519F52F3F310569F481E066
:1017200090E0AF85B8898D939C93E985FA852082F6
:10173000318242825382B4CF0E9499156C197D097F
:101740008E099F09663071058105910508F49ACFCD
:10175000F401EE54FD4F10828EEF9FEF03C1413034
:10176000510599F42E3F310519F482E090E02FC025
:10177000EF85F88911821082AF81B8858C91811133
:1017800081CFC4010E944F098BCF4230510589F4AB
:10179000F80131832083AB81BC811D921C9283E0D0
:1017A00090E0EF85F88991838083D3012D933C935A
:1017B00077CF4330510581F4322F2227F801808101
:1017C0009181820F931F9183808384E090E0AF85A5
:1017D000B8898D939C9364CF4430510599F460E0AF
:1017E00071E00E9462178F3F910539F485E090E027
:1017F000EF85F8899183808353CFAF85B8891D9297
:101800001C924ECF4530510571F4E981FA81318344
:10181000208386E090E0AF85B8898D939C93F30197
:10182000318320833DCF46305105D1F4322F22271A
:10183000A981BA818D919C911197820F931F8D93ED
:101840009C9327E030E0EF85F88931832083D8012D
:101850008D919C91892B09F015CF28E030E0E0CFE5
:101860004830510509F00ECFAF85B8891D921C9202
:1018700060E071E00E9462178F3F910509F002CF8E
:10188000A981BA81ED91FC913097B1F4C4010E9415
:101890004F09C4010E947A09F401ED54FD4FC08242
:1018A000D182E282F382ED81FE81C082D182E28226
:1018B000F3828FEF9FEF56C0EA30F10529F4B501AE
:1018C000C4010E94430AECCEE630F10551F4B501A3
:1018D0008B859C850E94050581E0AD85BE858C9336
:1018E000DFCEEB30F10521F4EF81F8851082D8CE00
:1018F000E952FF4FEE0FFF1FE80DF91D8081918126
:10190000009709F4BFCEDC01ED91FC910190F081CC
:10191000E02DB5010995C4CEF401EE54FD4F808150
:101920008823F1F084010D541D4FF80180819181CD
:10193000A281B381A7019601281B390B4A0B5B0BCF
:10194000DA01C901853C9940A105B10548F0C401FF
:101950000E944F09D801CD92DD92ED92FC9213972F
:1019600080E090E06096E2E10C94D317809112043D
:10197000882341F0609104017091050184EB90E0AF
:101980000E94180980911104882341F0609104019C
:101990007091050180E090E00E94180980910F0489
:1019A000882341F0609104017091050184EB90E07F
:1019B0000E94180980911004882341F0609104016D
:1019C0007091050180E090E00E94180980910E045A
:1019D000882341F060910401709105018AE590E04F
:1019E0000E94180980910D04882341F06091040140
:1019F000709105018EE091E00E94180981E294E067
:101A00000E94E00A61E070E080E090E00E94C8156A
:101A10000895CF93DF9389EB93E090932204809312
:101A200021048CE197E0909324048093230480E0C8
:101A300091EEA0E0B0E08093250490932604A0935B
:101A40002704B09328041092D3068DE793E0909377
:101A5000E2068093E1061092E3061092E9061092E6
:101A6000E8061092EA061092F0061092EF06109225
:101A7000F1061092F5061092F406E5E6F6E01192F2
:101A8000119286E0E739F807D1F7E7E9F6E011921D
:101A9000119286E0E93CF807D1F7E5E3F4E0119212
:101AA00085E0ED34F807D9F7EDE4F5E0119286E032
:101AB000E536F807D9F789E893E090931E04809300
:101AC0001D04CFE0D3E0D0932004C0931F0483E231
:101AD00093E090931404809313048DE194E0909329
:101AE00016048093150410921C0410921B0484E0C9
:101AF00094E00E94EB0E83EC93E09093DD038093DF
:101B0000DC038DEA93E09093E3038093E20381EAA0
:101B100093E09093E5038093E4031092E60385E954
:101B200093E09093E8038093E703D093EA03C09394
:101B3000E9031092EB031092EC031092ED03109264
:101B4000EE031092EF031092F0031092F103109243
:101B5000F2031092F4031092F3031092F503109223
:101B6000F6031092F7031092F8031092F903109203
:101B7000FF031092FE0389E298E0909301048093A2
:101B8000000481E090E0909303048093020489E2D2
:101B900093E09093E1038093E003DF91CF91089568
:101BA000A0E0B0E0E6EDFDE00C94C1178C01EB0184
:101BB000688179818A819B8120E03AEC4AE95BE384
:101BC0000E947617F801C080D180E280F380C20EB7
:101BD000D31EE41EF51EC082D182E282F3826883A6
:101BE00079838A839B83CDB7DEB7E8E00C94DD1759
:101BF00061E08AE00E941C1561E08AE00E94E31423
:101C00008CB580618CBD8CB580648CBD61E08DE04D
:101C10000E94E31461E08BE00E94E31408958CB508
:101C20008F7B8CBD0895811103C08CB5806202C08A
:101C30008CB58F7D8CBD08959CB5937F982B9CBDF2
:101C400008952CB5982F93702C7F922B9CBD9DB539
:101C500082FB882780F99E7F982B9DBD08951F9257
:101C60000F920FB60F9211242F933F934F935F93D0
:101C70006F937F938F939F93AF93BF93EF93FF9354
:101C80008091F70687FF05C01092850010928400AE
:101C90001AC02091F706332727FD30958091F6066C
:101CA00090E0281739077CF48091F706992787FD83
:101CB0009095FC01EE0FFF1FE80FF91FE850F94F58
:101CC000808186FD15C08091F7068F5F8093F706AF
:101CD0002091F706332727FD30958091F60690E096
:101CE00028173907BCF48091F7068C305CF112C0DC
:101CF0008091F706992787FD9095FC01EE0FFF1F55
:101D0000E80FF91FE850F94F808160E08F730E945F
:101D10001C15D9CF80918400909185000496803461
:101D20009C4918F480E49CE905C08091840090915E
:101D30008500049690938900809388008FEF8093AC
:101D4000F70638C080918400909185002091F706B5
:101D5000332727FD3095F901EE0FFF1FE20FF31F28
:101D6000E850F94F21813281820F931F90938900AF
:101D7000809388008091F706992787FD9095FC0154
:101D8000EE0FFF1FE80FF91FE850F94F808186FF23
:101D900011C08091F706992787FD9095FC01EE0F01
:101DA000FF1FE80FF91FE850F94F808161E08F7342
:101DB0000E941C15FF91EF91BF91AF919F918F9160
:101DC0007F916F915F914F913F912F910F900FBE37
:101DD0000F901F9018952091F6062C30A0F431E05A
:101DE000320F3093F606FC012083822F90E0FC0135
:101DF000EE0FFF1FE80FF91FE850F94F88EB9BE04B
:101E00009283818308952FEFFC0120830895A0E041
:101E1000B0E0EDE0FFE00C94C217EC01D62E7A01A1
:101E2000890188818C3008F066C061E08D2D0E94A8
:101E3000E3148881A82FB0E0FD01EE0FFF1FEA0F29
:101E4000FB1FE850F94F2D2D2F739081907C922B22
:101E5000908360E272E06E197F0977FF02C06D5FC8
:101E60007F4F7595679575956795698340E659E04D
:101E7000401B510B57FF02C04D5F5F4F5595479573
:101E8000559547954A836CE00E9456179CE0899FC0
:101E9000B001112420E030E0A901460F571FFA01DC
:101EA000EE0FFF1FE40FF51FE850F94F908196FDEC
:101EB00016C02F5F3F4F2C30310571F781110FC0D5
:101EC0001092800082E08093810010928500109231
:101ED0008400B19A80916F00826080936F00888146
:101EE00090E0FC01EE0FFF1FE80FF91FE850F94FDB
:101EF0008081806480838881CDB7DEB7E7E00C9471
:101F0000DE1720E639E040E252E00E94070F089514
:101F1000FC0180818C3070F5918128E830E0291B2C
:101F2000310997FD3395220F331F220F331F62179C
:101F300073077CF0928128E532E0291B310997FD77
:101F40003395220F331F220F331F621773070CF4D0
:101F50009B014FB7F89490E0FC01EE0FFF1FE80FD4
:101F6000F91FE850F94F22503109220F331F3283F5
:101F700021834FBF08954F925F926F927F92AF92ED
:101F8000BF92CF92DF92EF92FF920F931F93CF9366
:101F9000DF93EC01603282E078070CF040C077FDFF
:101FA00006C0653B71052CF064EB70E002C060E098
:101FB00070E0898128E830E0281B310987FD3395DE
:101FC000220F331F220F331F5901CC24B7FCC094BA
:101FD000DC2C882777FD8095982F2A8148E552E0F0
:101FE000421B510927FD5395440F551F440F551FA0
:101FF0002A01662457FC6094762C7F926F925F9240
:102000004F9214EBE12EF12C00E010E020E030E0E4
:10201000A9010E9421100F900F900F900F90CE01F8
:102020000E94880FDF91CF911F910F91FF90EF9049
:10203000DF90CF90BF90AF907F906F905F904F9068
:1020400008954F925F926F927F92AF92BF92CF921C
:10205000DF92EF92FF920F931F93CF93DF93CDB751
:10206000DEB729013A01621B730B840B950B29899A
:102070003A894B895C892A193B094C095D09298BEE
:102080003A8B4B8B5C8B9B01AC0169897A898B897C
:102090009C890E944617E418F50806091709A8014B
:1020A00097010E9498172A0D3B1D4C1D5D1DCA010A
:1020B000B901DF91CF911F910F91FF90EF90DF90C9
:1020C000CF90BF90AF907F906F905F904F900895AA
:1020D000A0E0B0E0EEE6F0E10C94C1176C017A01EB
:1020E000EB01E60EF71E00E010E0CE15DF0561F013
:1020F0006991D601ED91FC910190F081E02DC6012E
:102100000995080F191FF1CFC801CDB7DEB7E8E078
:102110000C94DD176115710589F0DB010D9000202D
:10212000E9F7AD0141505109461B570BDC01ED9118
:10213000FC910280F381E02D0995089580E090E004
:102140000895DC01ED91FC910190F081E02D09955D
:1021500008950F931F93CF93DF93EC016DE00E94DE
:10216000A1108C016AE0CE010E94A110800F911F86
:10217000DF91CF911F910F9108950F931F93CF93EC
:10218000DF93EC010E948A108C01CE010E94A910FD
:10219000800F911FDF91CF911F910F9108950E94A1
:1021A000EE150E949407CEEAD1E10E94B60C20976A
:1021B000E1F30E94AE11F9CFFC0124853585F901C8
:1021C000E05CFF4F80819181F901EE5BFF4F208140
:1021D0003181821B930B8F7399270895FC018485AD
:1021E0009585FC01E05CFF4F40815181FC01EE5B75
:1021F000FF4F208131814217530741F00190F08158
:10220000E02DE80FF91F808190E008958FEF9FEF98
:102210000895FC0184859585FC01E05CFF4F4081B9
:102220005181FC01EE5BFF4F208131814217530742
:1022300079F0A081B181A80FB91F8C9120813181E3
:102240002F5F3F4F2F7333273183208390E0089512
:102250008FEF9FEF0895FC0181A1882329F0A489C5
:10226000B5898C9186FFFBCF11A20895CF93DF93A0
:10227000FC0126853785D901A05CBF4F8D919C91CB
:10228000119701968F739927E901CE5BDF4F488143
:10229000598184179507D9F30D90BC91A02DA20FF9
:1022A000B31F6C93A685B785A05CBF4F11969C9316
:1022B0008E93A689B7892C9181E090E0078C02C0AB
:1022C000880F991F0A94E2F7282B2C9381E081A3B1
:1022D0000488F589E02D80818064808381E090E02E
:1022E000DF91CF91089508951F920F920FB60F922C
:1022F00011242F933F934F938F939F93EF93FF93CB
:102300008091C00082FD1CC04091C6008091C20730
:102310009091C30701968F7399272091C40730913C
:10232000C5078217930771F0E091C207F091C307C8
:10233000EE57F84F40839093C3078093C20702C0C3
:102340008091C600FF91EF919F918F914F913F91A6
:102350002F910F900FBE0F901F9018958CE197E072
:102360000E94DC10892B11F00E94731108951F92B6
:102370000F920FB60F9211242F933F938F939F9339
:10238000EF93FF9320917E0730917F078091800724
:10239000909181072817390731F48091C1008F7D12
:1023A0008093C10014C0E0918007F0918107E25C46
:1023B000F84F2081809180079091810701968F735B
:1023C000992790938107809380072093C600FF91FF
:1023D000EF919F918F913F912F910F900FBE0F9092
:1023E0001F901895CF92DF92EF92FF92CF93DF93D9
:1023F000EC016A017B01411581EE58076105710509
:10240000F9F0EC89FD8981E090E008A002C0880F16
:10241000991F0A94E2F7808360E079E08DE390E011
:10242000A70196010E9476172150310941095109EF
:102430005695479537952795211580E1380798F0EF
:10244000EC89FD89108260E874E88EE190E0A701D4
:1024500096010E947617215031094109510956957C
:10246000479537952795E889F9893083EA89FB896B
:10247000208319A2EE89FF89408181E090E09C01D0
:102480000C8C02C0220F331F0A94E2F7422B4083C8
:10249000EE89FF8940819C010D8C02C0220F331F01
:1024A0000A94E2F7422B4083EE89FF8940819C0128
:1024B0000E8C02C0220F331F0A94E2F7422B408396
:1024C000EE89FF8920810F8C02C0880F991F0A9422
:1024D000E2F7809582238083DF91CF91FF90EF9088
:1024E000DF90CF90089510921F0710921E0788EE7C
:1024F00093E0A0E0B0E08093200790932107A093A1
:102500002207B09323078FEC93E090931D078093ED
:102510001C0782E897E090932907809328078EE3B1
:1025200097E090932B0780932A0785EC90E0909397
:102530002D0780932C0784EC90E090932F078093D5
:102540002E0780EC90E0909331078093300781EC68
:1025500090E0909333078093320782EC90E0909361
:1025600035078093340786EC90E09093370780938B
:10257000360784E08093380783E08093390787E04B
:1025800080933A0785E080933B0781E080933C0786
:102590000895CF93DF938230910510F482E090E0AC
:1025A000E091D107F091D20720E030E0A0E0B0E068
:1025B000309739F14081518148175907B8F04817D1
:1025C000590771F482819381109729F013969C9397
:1025D0008E9312972CC09093D2078093D10727C077
:1025E0002115310531F04217530718F0A901DB011D
:1025F00001C0EF019A01BD01DF010280F381E02DEE
:10260000D7CF21153105F9F0281B390B24303105BE
:1026100080F48A819B816115710521F0FB01938310
:10262000828304C09093D2078093D107FE01329633
:1026300044C0FE01E20FF31F8193919322503109B0
:10264000398328833AC02091CF073091D007232BBC
:1026500041F420910801309109013093D007209373
:10266000CF0720910601309107012115310541F472
:102670002DB73EB740910A0150910B01241B350B39
:10268000E091CF07F091D007E217F307A0F42E1BDB
:102690003F0B2817390778F0AC014E5F5F4F2417C6
:1026A000350748F04E0F5F1F5093D0074093CF0778
:1026B0008193919302C0E0E0F0E0CF01DF91CF91F0
:1026C0000895CF93DF93009709F487C0FC013297F8
:1026D00013821282C091D107D091D207209781F442
:1026E00020813181280F391F8091CF079091D00729
:1026F0008217930779F5F093D007E093CF076DC069
:10270000DE0120E030E0AE17BF0750F412964D9185
:102710005C9113979D014115510509F1DA01F3CF41
:10272000B383A28340815181840F951F8A179B0731
:1027300071F48D919C911197840F951F029691834E
:10274000808312968D919C91139793838283211598
:10275000310529F4F093D207E093D1073EC0D901A7
:102760001396FC93EE9312974D915D91A40FB51FB4
:10277000EA17FB0779F480819181840F951F0296F7
:10278000D90111969C938E938281938113969C9389
:102790008E931297E0E0F0E08A819B81009719F018
:1027A000FE01EC01F9CFCE01029628813981820F1A
:1027B000931F2091CF073091D0072817390769F46C
:1027C000309729F41092D2071092D10702C01382D9
:1027D0001282D093D007C093CF07DF91CF91089595
:1027E000A0E0B0E0E6EFF3E10C94BB17EC01CB0105
:1027F000209719F40E94C912B8C0FE01E60FF71F16
:102800009E0122503109E217F30708F4ACC0D90148
:102810000D911C91119706171707B8F00530110597
:1028200008F49FC0A801445051094617570708F4FF
:1028300098C002501109061B170B019311936D9359
:102840007C93CF010E9461138CC05B01A01AB10A76
:102850004E01800E911EA091D107B091D207612C3C
:10286000712C60E070E0109709F449C0A815B90513
:10287000C9F5ED90FC901197670142E0C40ED11CA0
:10288000CA14DB0478F147018A189B08640142E00E
:10289000C40ED11C1296BC9012971396AC91B5E061
:1028A000CB16D10440F0B282A38391828082D901F9
:1028B0008D939C9309C00E5F1F4F0E0D1F1DF901D4
:1028C00011830083EB2DFA2F6115710531F0DB01C7
:1028D0001396FC93EE93129744C0F093D207E093C3
:1028E000D1073FC06D917C9111976616770608F469
:1028F0003B01BD0112960D90BC91A02DB4CF60910B
:10290000CF077091D00768157905E9F46816790644
:10291000D0F440910601509107014115510541F451
:102920004DB75EB760910A0170910B01461B570BC2
:10293000E417F507C0F4F093D007E093CF07F9014F
:10294000918380830EC00E94C9127C01009759F0C8
:10295000A801BE010E942218CE010E946113C70186
:1029600004C0CE0102C080E090E0CDB7DEB7EEE05B
:102970000C94D717833081F028F4813099F082309D
:10298000A1F008958630A9F08730B9F08430D1F4F1
:10299000809180008F7D03C0809180008F7780932D
:1029A0008000089584B58F7702C084B58F7D84BD83
:1029B00008958091B0008F7703C08091B0008F7D23
:1029C0008093B0000895CF93DF9390E0FC01E4582A
:1029D000FF4F2491FC01E057FF4F8491882349F178
:1029E00090E0880F991FFC01E255FF4FA591B4912B
:1029F0008C559F4FFC01C591D4919FB7611108C0C0
:102A0000F8948C91209582238C93888182230AC02C
:102A1000623051F4F8948C91322F309583238C934B
:102A20008881822B888304C0F8948C91822B8C93AC
:102A30009FBFDF91CF910895A1E0B0E0E2E2F5E120
:102A40000C94C517282F30E0F901E859FF4F849105
:102A5000F901E458FF4F1491F901E057FF4F049139
:102A60000023C9F0882321F069830E94BA14698188
:102A7000E02FF0E0EE0FFF1FEC55FF4FA591B49152
:102A80009FB7F8948C91611103C01095812301C008
:102A9000812B8C939FBF2196E4E00C94E1171F9249
:102AA0000F920FB60F9211242F933F938F939F9302
:102AB000AF93BF938091C7079091C807A091C907B2
:102AC000B091CA073091C60723E0230F2D3720F4B9
:102AD0000196A11DB11D05C026E8230F0296A11D78
:102AE000B11D2093C6078093C7079093C807A09392
:102AF000C907B093CA078091CB079091CC07A091EA
:102B0000CD07B091CE070196A11DB11D8093CB07D3
:102B10009093CC07A093CD07B093CE07BF91AF9110
:102B20009F918F913F912F910F900FBE0F901F900B
:102B300018952FB7F8946091C7077091C8078091D6
:102B4000C9079091CA072FBF08953FB7F8948091A5
:102B5000CB079091CC07A091CD07B091CE0726B5B9
:102B6000A89B05C02F3F19F00196A11DB11D3FBFC5
:102B70006627782F892F9A2F620F711D811D911D55
:102B800042E0660F771F881F991F4A95D1F7089575
:102B9000CF92DF92EF92FF92CF93DF936B017C0194
:102BA0000E94A515EB01C114D104E104F10479F0F0
:102BB0000E94A5156C1B7D0B683E7340A0F381E05D
:102BC000C81AD108E108F108C851DC4FECCFDF91F9
:102BD000CF91FF90EF90DF90CF900895789484B5D7
:102BE000826084BD84B5816084BD85B5826085BD09
:102BF00085B5816085BDEEE6F0E0808181608083EF
:102C0000E1E8F0E0108280818260808380818160D1
:102C10008083E0E8F0E0808181608083E1EBF0E098
:102C2000808184608083E0EBF0E08081816080833C
:102C3000EAE7F0E080818460808380818260808325
:102C40008081816080838081806880831092C10050
:102C5000089598D088F09F5790F0B92F9927B751D1
:102C6000A0F0D1F0660F771F881F991F1AF0BA9550
:102C7000C9F712C0B13081F09FD0B1E008959CC077
:102C8000672F782F8827B85F39F0B93FCCF3869546
:102C900077956795B395D9F73EF4909580957095A3
:102CA00061957F4F8F4F9F4F0895E89409C097FB20
:102CB0003EF490958095709561957F4F8F4F9F4F13
:102CC0009923A9F0F92F96E9BB279395F695879557
:102CD00077956795B795F111F8CFFAF4BB0F11F41A
:102CE00060FF1BC06F5F7F4F8F4F9F4F16C08823C1
:102CF00011F096E911C0772321F09EE8872F762FF7
:102D000005C0662371F096E8862F70E060E02AF037
:102D10009A95660F771F881FDAF7880F9695879523
:102D200097F9089597F99F6780E870E060E008954B
:102D30009FEF80EC089500240A94161617061806D3
:102D40000906089500240A941216130614060506AF
:102D50000895092E0394000C11F4882352F0BB0F40
:102D600040F4BF2B11F460FF04C06F5F7F4F8F4FA3
:102D70009F4F089557FD9058440F551F59F05F3FDE
:102D800071F04795880F97FB991F61F09F3F79F08D
:102D900087950895121613061406551FF2CF46950F
:102DA000F1DF08C0161617061806991FF1CF869591
:102DB0007105610508940895E894BB276627772775
:102DC000CB0197F908950BD0C4CFB5DF28F0BADF57
:102DD00018F0952309F0A6CFABCF1124EECFCADFB0
:102DE000A0F3959FD1F3950F50E0551F629FF0011E
:102DF000729FBB27F00DB11D639FAA27F00DB11D77
:102E0000AA1F649F6627B00DA11D661F829F2227FF
:102E1000B00DA11D621F739FB00DA11D621F839F86
:102E2000A00D611D221F749F3327A00D611D231F5C
:102E3000849F600D211D822F762F6A2F11249F57AA
:102E400050408AF0E1F088234AF0EE0FFF1FBB1FCD
:102E5000661F771F881F91505040A9F79E3F51056C
:102E600070F060CFAACF5F3FECF3983EDCF386951D
:102E700077956795B795F795E7959F5FC1F7FE2B17
:102E8000880F911D9695879597F90895DB018F938B
:102E90009F930E94EE17BF91AF91A29F800D911D4D
:102EA000A39F900DB29F900D11240895991B79E076
:102EB00004C0991F961708F0961B881F7A95C9F7CA
:102EC0008095089597FB072E16F4009407D077FDA0
:102ED00009D00E94F91707FC05D03EF49095819522
:102EE0009F4F0895709561957F4F0895A1E21A2E26
:102EF000AA1BBB1BFD010DC0AA1FBB1FEE1FFF1F9E
:102F0000A217B307E407F50720F0A21BB30BE40BED
:102F1000F50B661F771F881F991F1A9469F7609534
:102F20007095809590959B01AC01BD01CF010895EE
:102F3000052E97FB1EF400940E94AF1757FD07D093
:102F40000E94761707FC03D04EF40C94AF175095EF
:102F50004095309521953F4F4F4F5F4F0895909585
:102F60008095709561957F4F8F4F9F4F08952F9259
:102F70003F924F925F926F927F928F929F92AF9209
:102F8000BF92CF92DF92EF92FF920F931F93CF9356
:102F9000DF93CDB7DEB7CA1BDB0B0FB6F894DEBFED
:102FA0000FBECDBF09942A88398848885F846E8413
:102FB0007D848C849B84AA84B984C884DF80EE805D
:102FC000FD800C811B81AA81B981CE0FD11D0FB666
:102FD000F894DEBF0FBECDBFED0108950E94131817
:102FE000A59F900DB49F900DA49F800D911D11245D
:102FF0000895AA1BBB1B51E107C0AA1FBB1FA61740
:10300000B70710F0A61BB70B881F991F5A95A9F791
:1030100080959095BC01CD010895EE0FFF1F05909E
:10302000F491E02D0994A29FB001B39FC001A39F2A
:10303000700D811D1124911DB29F700D811D1124F1
:10304000911D0895FB01DC0102C001900D924150D9
:0A3050005040D8F70895F894FFCF20
:10305A00010000001E000000D30780007374645F43
:10306A006D7367732F54696D650063643731363643
:10307A0063373463353532633331316662636332C1
:10308A006665356137626332383900726F7373650A
:10309A007269616C5F6D7367732F546F70696349EE
:1030AA006E666F0030616435316638386663343471
:1030BA003839326638633130363834303737363457
:1030CA003630303500726F7373657269616C5F6D8B
:1030DA007367732F4C6F6700313161626437333124
:1030EA0063323539333332363163643631383362D9
:1030FA0064313264363239350039663065393862BE
:10310A006461363539383139383664646635336145
:10311A00666137613430653439007374645F6D7386
:10312A0067732F537472696E670039393263653871
:10313A0061313638376365633863386264383833E7
:10314A0065633733636134316431007374645F6D6E
:10315A007367732F4D756C74694172726179446932
:10316A006D656E73696F6E00346364306338336102
:10317A003836383364656165343065636461633653
:10318A003065353362666138007374645F6D7367E6
:10319A00732F4D756C746941727261794C61796FE4
:1031AA00757400306665643261313163313365317B
:1031BA0031633535373162346532613939356139D0
:1031CA00316133007374645F6D7367732F496E7472
:1031DA0033324D756C7469417272617900316439A8
:1031EA003966373966386233323562343466656532
:1031FA0039303830353365396339343562004D65D5
:10320A0073736167652066726F6D206465766963A2
:10321A00652064726F707065643A206D65737361BE
:10322A006765206C6172676572207468616E2062DE
:10323A0075666665722E0050726F6772616D2053F3
:10324A00746172740045786365656473206D6F7488
:10325A006F722073706565642072616E67652E00F7
:10326A00496E76616C696420646972656374696F1A
:10327A006E2E006D6F746F7200636F6E74726F6C76
:10328A005F636F6D6D616E6400726F7373657269EF
:10329A00616C5F6D7367732F5265717565737450D6
:1032AA006172616D00000000008800AA00F000F35E
:1032BA0000000000005703F600BC01BF0100000037
:1032CA0000D503C20106020902000000000104053C
:1032DA00050C020F0200000000A30412024E025164
:1032EA000200000000CA045402C602C9020000001B
:1032FA0000CC0219060C030F030000000012037B26
:10330A00064203450300000000F706E00A520300E4
:10331A00000000E30648034C034F03000000003698
:0C332A00116810DC100911EE102B1100CE
:00000001FF
